:0400000007EF00F016
:0A0008005F8222ED0DF0ECEF0CF02A
:090800000025644125644200005A
:10080A001FC037F020C038F021C039F022C03AF0BA
:10081A0023C03BF024C03CF025C03DF026C03EF08A
:10082A003EBE1AEF04F01DEF04F0010E1EEF04F0B5
:10083A00000E356E366A35503610D8B427EF04F0FC
:10084A0029EF04F039EF04F03E1E3D1E3C1E3B1E0C
:10085A003A1E391E381E376C000E382239223A22C7
:10086A003B223C223D223E22000165BF3FEF04F0BD
:10087A0041EF04F042EF04F0669365BF4FEF04F0D6
:10088A00655106E16405D8B04DEF04F04FEF04F06E
:10089A0055EF04F0000E326E010E316E59EF04F07E
:1008AA0064C031F065C032F062C033F063C034F026
:1008BA0035503610D8A464EF04F066EF04F06DEFFB
:1008CA0004F066A56BEF04F06DEF04F070EF04F02E
:1008DA003306D8A03406000E406E1F0E3F6E000E7F
:1008EA009F6FF4EF04F03F06D8A04006800E3F2425
:1008FA00D96E000E4020DA6E37C001F038C002F01F
:10090A0039C003F03AC004F03BC005F03CC006F021
:10091A003DC007F03EC008F00A0E096E000E0A6ECE
:10092A00000E0B6E000E0C6E000E0D6E000E0E6E9B
:10093A00000E0F6E000E106E31EC08F001C027F0A9
:10094A0002C028F003C029F004C02AF005C02BF029
:10095A0006C02CF007C02DF008C02EF027C013F0F7
:10096A0029C014F011EC0CF01350300FDF6E310671
:10097A00D8A032063306D8A0340637C001F038C0F2
:10098A0002F039C003F03AC004F03BC005F03CC0A5
:10099A0006F03DC007F03EC008F00A0E096E000ED0
:1009AA000A6E000E0B6E000E0C6E000E0D6E000E1F
:1009BA000E6E000E0F6E000E106E6DEC07F001C089
:1009CA0037F002C038F003C039F004C03AF005C06D
:1009DA003BF006C03CF007C03DF008C03EF040BE08
:1009EA00FFEF04F0405008E13F04D8A0FFEF04F005
:1009FA0001EF05F032EF05F03750381039103A1090
:100A0A003B103C103D103E10D8A40EEF05F010EF3D
:100A1A0005F078EF04F032BE1DEF05F0325006E122
:100A2A003104D8B01BEF05F01DEF05F078EF04F0A4
:100A3A0034BE28EF05F0345008E13304D8A028EF7B
:100A4A0005F02AEF05F032EF05F0000166B330EF4A
:100A5A0005F032EF05F078EF04F035503610D8A4DF
:100A6A0039EF05F03BEF05F043EF05F0000166A50D
:100A7A0041EF05F043EF05F061EF05F03F06D8A01E
:100A8A00400635503610D8A44DEF05F04FEF05F06B
:100A9A0055EF05F0000E306E2B0E2F6E59EF05F054
:100AAA00000E306E2D0E2F6E800E3F24D96E000E72
:100ABA004020DA6E2FC0DFFF1DC012F01EC013F0F7
:100ACA00800E3F24146E000E4020156E33C016F0BF
:100ADA0034C017F011EC0AF012C01DF013C01EF05A
:100AEA00120029EC0DF0030E0001AD6F080EAC6F79
:100AFA00770EE82EFED7AC2FFCD7AD2FFAD7800E93
:100B0A000F6E250E106E000E116E000E126E19EC8D
:100B1A000BF0030E0001AD6F080EAC6F770EE82ED6
:100B2A00FED7AC2FFCD7AD2FFAD7000E806E926895
:100B3A00DAEC0CF0030E0001AD6F080EAC6F770E05
:100B4A00E82EFED7AC2FFCD7AD2FFAD710EC0DF05C
:100B5A001AEC0DF03BEC0DF0030E0001AD6F080E20
:100B6A00AC6F770EE82EFED7AC2FFCD7AD2FFAD795
:100B7A0031EC0CF0030E0001AD6F080EAC6F770E6E
:100B8A00E82EFED7AC2FFCD7AD2FFAD746EC0DF0E6
:100B9A004AEC0DF041EC0DF0000E00017F6F35ECD0
:100BAA000DF000017D51D8B4DDEF05F0DFEF05F05F
:100BBA00D6EF05F0000E7D6F2FEC0DF000017F2BB4
:100BCA00020E7F65EBEF05F0EDEF05F0D4EF05F0CF
:100BDA00F9EC0CF001C06EF002C06FF04CEC0DF0B5
:100BEA0048EC0DF0000E86EC0CF001C078F002C063
:100BFA0079F0010E86EC0CF001C076F002C077F0B5
:100C0A00020E86EC0CF001C074F002C075F0030EFF
:100C1A0086EC0CF001C072F002C073F0000176514C
:100C2A007825AC6F77517921AD6F7451AC27755126
:100C3A00AD237251AC277351AD23D890AD33AC3389
:100C4A00D890AD33AC33ACC070F0ADC071F0010ECA
:100C5A00596E080E5A6E6EC05BF06FC05CF070C0C1
:100C6A005DF071C05EF0A1EC0CF0000E00017E6F29
:100C7A00030E7E6543EF06F045EF06F047EF06F0F8
:100C8A005AEF06F0A50E7E25D96EDA6A000EDA2230
:100C9A00200EDF6EA00E7E25D96EDA6A000EDA22E9
:100CAA00200EDF6E7E2B3DEF06F0000EA96F000EC0
:100CBA00A46FA50E016E000E026EA00E036E000E4A
:100CCA00046E74EC0AF0D8A06DEF06F06FEF06F030
:100CDA005EEF06F0A50E086E000E096EE3EC08F052
:100CEA0008C06CF009C06DF0A00E086E000E096E07
:100CFA00E3EC08F008C06AF009C06BF06CC001F0C0
:100D0A006DC002F0CDEC0BF06AC001F06BC002F0CE
:100D1A00ABEC0BF0CBEF05F007EF00F043C0D9FFC7
:100D2A0044C0DAFFDECFF6FFDDCFF7FF0800F5504B
:100D3A00250AD8A4A3EF06F0A5EF06F051EF07F0B5
:100D4A0043C0D9FF44C0DAFFDE2A000EDD22000EBE
:100D5A000001636F000E626F62C066F063C067F0E5
:100D6A006469656943C0D9FF44C0DAFFDECFF6FF84
:100D7A00DDCFF7FF0800F550640AD8B4C7EF06F0D4
:100D8A00C9EF06F0DBEF06F043C0D9FF44C0DAFF33
:100D9A00DECFF6FFDDCFF7FF0800F550690AD8A4C9
:100DAA00D9EF06F0DBEF06F01BEF07F043C0D9FFDF
:100DBA0044C0DAFFDE2A000EDD2245C0D9FF46C054
:100DCA00DAFFDFCF47F0020EDE26DFCF48F0000E53
:100DDA00DD2247C0D9FF48C0DAFFDECF49F0DDCFB8
:100DEA004AF0000E4ABEFF0E4B6E4C6E4D6E4E6EB2
:100DFA004F6E506E41C01DF042C01EF049C01FF038
:100E0A004AC020F04BC021F04CC022F04DC023F064
:100E1A004EC024F04FC025F050C026F005EC04F077
:100E2A001DC041F01EC042F06CEF07F043C0D9FF6D
:100E3A0044C0DAFFDECFF6FFDDCFF7FF0800F5503A
:100E4A00250AD8A42BEF07F02DEF07F044EF07F09F
:100E5A0043C0D9FF44C0DAFFDE2A000EDD22000EAD
:100E6A00036E250E026E41C004F042C005F0CEECBE
:100E7A000AF0000E426E010E416E6CEF07F043C09D
:100E8A00D9FF44C0DAFFDE2A000EDD22000E426ED0
:100E9A00000E416E6CEF07F043C0D9FF44C0DAFF81
:100EAA00DECFF6FFDDCFF7FF0800F550026E036ACA
:100EBA0041C004F042C005F0CEEC0AF043C0D9FFAD
:100ECA0044C0DAFFDE2A000EDD223EEF07F01200F0
:100EDA00000E126E10BE76EF07F074EF07F088EF7F
:100EEA0007F0101E0F1E0E1E0D1E0C1E0B1E0A1ED4
:100EFA00096C000E0A220B220C220D220E220F224E
:100F0A001022010E126E08BE8FEF07F08DEF07F068
:100F1A00A1EF07F0081E071E061E051E041E031E6B
:100F2A00021E016C000E022203220422052206225E
:100F3A0007220822010E121A20EE13F0070EDE6AAB
:100F4A00E806FDE209500A100B100C100D100E10E5
:100F5A000F101010D8B4B4EF07F0B6EF07F008EF8F
:100F6A0008F0010E116EC4EF07F0D89009360A3660
:100F7A000B360C360D360E360F361036112A10AED9
:100F8A00C9EF07F0CBEF07F0BAEF07F0D8901336A6
:100F9A001436153616361736183619361A360950D3
:100FAA00015C0A5002580B5003580C5004580D505B
:100FBA0005580E5006580F50075810500858D8A018
:100FCA00E9EF07F0EBEF07F0FCEF07F00950015EDD
:100FDA000A50025A0B50035A0C50045A0D50055A23
:100FEA000E50065A0F50075A1050085A1380D890BC
:100FFA0010320F320E320D320C320B320A320932F3
:10100A00112ECBEF07F01250D8B40EEF08F010EF04
:10101A0008F020EF08F01A1E191E181E171E161EB9
:10102A00151E141E136C000E1422152216221722E6
:10103A00182219221A2213C001F014C002F015C096
:10104A0003F016C004F017C005F018C006F019C066
:10105A0007F01AC008F01200000E126E08BE3AEF2E
:10106A0008F038EF08F04CEF08F0081E071E061EBD
:10107A00051E041E031E021E016C000E022203221C
:10108A0004220522062207220822010E126E10BE31
:10109A0053EF08F051EF08F063EF08F0101E0F1E2F
:1010AA000E1E0D1E0C1E0B1E0A1E096C000E0A22B5
:1010BA000B220C220D220E220F22102209500A1096
:1010CA000B100C100D100E100F101010D8B470EF7A
:1010DA0008F072EF08F0BAEF08F0010E116E80EF17
:1010EA0008F0D89009360A360B360C360D360E360D
:1010FA000F361036112A10AE85EF08F087EF08F088
:10110A0076EF08F00950015C0A5002580B50035858
:10111A000C5004580D5005580E5006580F500758D9
:10112A0010500858D8A09CEF08F09EEF08F0AEEFD8
:10113A0008F00950015E0A50025A0B50035A0C502B
:10114A00045A0D50055A0E50065A0F50075A10509D
:10115A00085AD89010320F320E320D320C320B323E
:10116A000A320932112E87EF08F01250D8B4C0EFB4
:10117A0008F0C2EF08F0D2EF08F0081E071E061E9C
:10118A00051E041E031E021E016C000E022203220B
:10119A000422052206220722082201C001F002C009
:1011AA0002F003C003F004C004F005C005F006C055
:1011BA0006F007C007F008C008F01200000E116E12
:1011CA00000E106E000E0F6E000E0E6EEFEF08F09E
:1011DA00084A092A08C0D9FF09C0DAFF200EDE181A
:1011EA00D8B4FAEF08F0FCEF08F0EDEF08F0F70ECC
:1011FA000A6EFF0E0B6E08C0D9FF09C0DAFFDF5076
:10120A000C6E0D6A0A500C260B500D220D5009E186
:10121A00050E0C5CD8A014EF09F016EF09F0EDEFFB
:10122A0008F020EF09F0000E0F6E010E0E6E084A4C
:10123A00092A55EF09F008C0D9FF09C0DAFFDF50C3
:10124A000A6E0B6A0B50000AD8B42EEF09F055EF5C
:10125A0009F00A502B0AD8B41CEF09F0060AD8B4D0
:10126A0018EF09F055EF09F010C001F011C002F0B3
:10127A00000E046E0A0E036EB5EC0CF008C0D9FF1E
:10128A0009C0DAFFDF500A6E0A50015E000E025AE8
:10129A00300E0124106E000E0220116E1CEF09F0B0
:1012AA00D00E0A6EFF0E0B6E08C0D9FF09C0DAFF16
:1012BA00DF500C6E0D6A0A500C260B500D220D5091
:1012CA0009E10A0E0C5CD8A06DEF09F06FEF09F086
:1012DA0039EF09F00E500F10D8A476EF09F078EF25
:1012EA0009F086EF09F010C00AF011C00BF00A1ECF
:1012FA000B1E0A4A0B2A0AC008F00BC009F08AEF33
:10130A0009F010C008F011C009F01200000E0A6EB0
:10131A0008BE94EF09F092EF09F09EEF09F0081E5B
:10132A00071E061E056C000E062207220822010E61
:10133A000A6E04BEA5EF09F0A3EF09F0AFEF09F0BA
:10134A00041E031E021E016C000E02220322042246
:10135A00010E0A1A000E0B6E000E0C6E000E0D6EB8
:10136A00000E0E6E0550061007100810D8B4C0EF14
:10137A0009F0C2EF09F0F8EF09F0010E096ECCEF9F
:10138A0009F0D8900536063607360836092A08AE17
:10139A00D1EF09F0D3EF09F0C6EF09F0D8900B3678
:1013AA000C360D360E360550015C065002580750B1
:1013BA00035808500458D8A0E5EF09F0E7EF09F000
:1013CA00F0EF09F00550015E0650025A0750035A21
:1013DA000850045A0B80D890083207320632053278
:1013EA00092ED3EF09F00A50D8B4FEEF09F000EF46
:1013FA000AF008EF0AF00E1E0D1E0C1E0B6C000EF2
:10140A000C220D220E220BC001F00CC002F00DC0FE
:10141A0003F00EC004F01200000166A117EF0AF0F3
:10142A0019EF0AF023EF0AF014C00BF015C00CF004
:10143A0012C00DF013C00EF0EFEC0BF017BE28EF40
:10144A000AF02AEF0AF030EF0AF016C01BF017C0B4
:10145A001CF034EF0AF0000E1C6E000E1B6E000E1C
:10146A001A6E000E196E46EF0AF0000E036E200E79
:10147A00026E12C004F013C005F0CEEC0AF0194A4D
:10148A001A2A1B50195C1A50800A186E1C50800ABE
:10149A001858D8A053EF0AF055EF0AF03AEF0AF0BD
:1014AA00000166B15BEF0AF05DEF0AF067EF0AF040
:1014BA0014C00BF015C00CF012C00DF013C00EF0E2
:1014CA00EFEC0BF014C001F015C002F06BEC0CF05D
:1014DA001B500124126E1C500220136E1200C8EC1D
:1014EA000CF000017B6F240E7B19D8A47FEF0AF061
:1014FA0081EF0AF0CCEF0AF0000E7A6FC1EF0AF022
:10150A00C8EC0CF000017B6F2C0E7B19D8A490EF6D
:10151A000AF092EF0AF0ACEF0AF07A2B000E7E6F17
:10152A00C1EF0AF07E510124D96E000E0220DA6E54
:10153A007BC0DFFF7E2BC1EF0AF07E510324D96EF8
:10154A00000E0420DA6E7BC0DFFF9FEF0AF07A51AB
:10155A00056E066A0650000AD8B4B6EF0AF0C1EF63
:10156A000AF00550010AD8B497EF0AF0030AD8B472
:10157A00A2EF0AF0C1EF0AF0020E7A65C7EF0AF08D
:10158A00C9EF0AF085EF0AF0D880CDEF0AF0D890BB
:10159A00120004500510D8B4D5EF0AF0D7EF0AF0BC
:1015AA00E0EF0AF004500510D8A4DEEF0AF0E0EFED
:1015BA000AF0E5EF0AF0025005EC0DF018EF0BF017
:1015CA0020EE09F00450D9260550DA22DE50DE104A
:1015DA00D8B4F2EF0AF0F4EF0AF00FEF0BF020EEB6
:1015EA0009F00450D9260550DA2210EE03F004500F
:1015FA00E1260550E222DE50E65CE650800A0A6ED9
:10160A00DE50800A0A58D8B00DEF0BF00FEF0BF03E
:10161A0018EF0BF020EE03F00450D9260550DA2219
:10162A00DE2A000EDD221200949C948E0FC005F073
:10163A0010C006F011C007F012C008F0000E016ECB
:10164A00120E026E7A0E036E000E046E8BEC09F017
:10165A0001C013F002C014F003C015F004C016F064
:10166A0013C001F014C002F015C003F016C004F054
:10167A00400E056E000E066E000E076E000E086E16
:10168A008BEC09F00104AF6EAC94AC98AB8EAC8ACB
:10169A00AC9CAB9CAB88120053C057F054C058F0B6
:1016AA00000E0001616F000E606F6FEF0BF051C00A
:1016BA0041F052C042F0570E436E000E446E55C0C0
:1016CA0045F056C046F093EC06F041500001602701
:1016DA004250612357C0F6FF58C0F7FF0800F55083
:1016EA000009D8A47BEF0BF07DEF0BF05CEF0BF059
:1016FA0060C051F061C052F01200010E076E200E58
:10170A0001180210D8B48CEF0BF08EEF0BF0A7EF94
:10171A000BF0F70E036EFF0E046E01C005F002C057
:10172A0006F00350052604500622065009E1050E6C
:10173A00055CD8A0A3EF0BF0A5EF0BF0A7EF0BF019
:10174A00000E076E07C001F0026A120001C003F022
:10175A0002C004F0D89004320332D8900432033223
:10176A000350BB6E01C003F0010E0316033A034691
:10177A00BA500318DF0B0318BA6E01C003F0020E49
:10178A000316033ABA500318EF0B0318BA6E120085
:10179A0001C003F002C004F0D89004320332D8909A
:1017AA00043203320350BE6E01C003F0010E031669
:1017BA00033A0346BD500318DF0B0318BD6E01C080
:1017CA0003F0020E0316033ABD500318EF0B031879
:1017DA00BD6E1200000E116E000E106E00EF0CF0BE
:1017EA000FC002F0036A0DC004F00EC005F0CEEC83
:1017FA000AF0104A112A10500B24D96E11500C20ED
:10180A00DA6EDF500F6E0F50D8A40EEF0CF010EF07
:10181A000CF0F5EF0BF0120014BE1EEF0CF0145092
:10182A0006E11304D8B01CEF0CF01EEF0CF02CEFFD
:10183A000CF013C015F014C016F0151E161E154A2A
:10184A00162A15C013F016C014F030EF0CF013C0AE
:10185A0013F014C014F01200000E826E000E816E96
:10186A0094949396F90ECB6E000EBE6EBD9ABD98F7
:10187A00BD50F00B0C09BD6E000EBB6EBA9ABA9839
:10188A00BA50F00B0C09BA6E030ECA12000ECC6ED7
:10189A00CA841200D00E036EFF0E046E01C005F05A
:1018AA0002C006F0035005260450062206500AE13B
:1018BA000A0E055CD8A064EF0CF067EF0CF0010E7D
:1018CA0068EF0CF0000E016E026A120001C003F00C
:1018DA0002C004F073EF0CF0014A022A01C0D9FFDA
:1018EA0002C0DAFFDF50D8A47DEF0CF07FEF0CF0D6
:1018FA0071EF0CF00350015C016E04500258026E45
:10190A001200046E000EC26E04C003F003460346C2
:10191A00C2500318C30B0318C26EC280C282C2B27D
:10192A0099EF0CF09BEF0CF094EF0CF0C290C3CF40
:10193A0001F0C4CF02F012005B0E0001AA6F000E84
:10194A00AB6F000E516E000E526E59C053F05AC062
:10195A0054F0AA0E556E000E566E51EC0BF01200A2
:10196A0001500302F3CF05F0F4CF06F00150040250
:10197A00F350062602500302F350062605C001F072
:10198A0006C002F012009EAACDEF0CF0CFEF0CF0C9
:10199A00C8EF0CF0ABA2D4EF0CF0D6EF0CF0D8EFF6
:1019AA000CF0AB98AB88AE501200CF0EC116C150E6
:1019BA00F00B0B09C16E000EC26EC050C70B1009A6
:1019CA00C06EC050F80B0109C06EC08E120000EE46
:1019DA0060F04A0EEE6AE806FDE15F905F92000E43
:1019EA00F86E000176EF05F0D750036ED65000016D
:1019FA00686F03C069F068C001F069C002F01200A4
:101A0A00016E9EA80BEF0DF00DEF0DF006EF0DF035
:101A1A0001C0ADFF1200D59ED59CD58AD598D58632
:101A2A00000ED76E000ED66E1200CD8ECD8C300E03
:101A3A00CD12CD86CD92CD9012000600010E000186
:101A4A007D6F9E905F921100700ED312D384030EA5
:101A5A00D3121200CD90000ECF6E000ECE6E120081
:101A6A00000ECF6E000ECE6ECD801200F28EF28C7A
:101A7A00D09E9D809E901200000ED76E000ED66EEC
:101A8A001200F28E1200F29E1200D58E1200D59E1E
:021A9A00120038
:020000040020DA
:08000000FFFFFFFFFFFFFFFF00
:020000040030CA
:0E000000000B1E1EFF0081FF0FC00FE00F401F
:00000001FF
